:040000006F408014B9
:100004000000000000000000A00000209C0B002065
:10001400A9BDF9F3FC01002000000000000000006D
:10002400FC010020A00000200000000000000000EF
:10003400A000002000000000A0000020000000003C
:10004400A0000020A0000020A0000020A0000020AC
:10005400A00000201C0C0020A000002000000000D4
:10006400A0000020A0000020A0000020A00000208C
:10007400C80C0020A0000020A0000020A000002048
:10008400A0000020A0000020A0000020A00000206C
:10009400A0000020A0000020A0000020A00000205C
:1000A40001A0B7170040984B41111367070198CB83
:1000B400982B1377E70F98AB1307800873370780E3
:1000C400137787083AC601000100130770052380DF
:1000D400E704130780FA2380E70401000100B8470E
:1000E400B70600069506558FB8C703C7B70413773C
:1000F400F70DA385E704B82713672701B8A71307EB
:1001040050149AA7372700408346578093F6F60E7B
:10011400A302D7808946A303D78003C7E7041377D4
:10012400C70F136717002387E70403C7F702136792
:100134002700A387E702982B1367170098AB238047
:100144000704B247F3A70780010001004101828040
:10015400EFF03FF513050020970500009385450A4D
:1001640017460000130606FE63FAC5008322050045
:1001740023A0550011059105E3EAC5FE17A503E088
:100184001305C596974500009385C5FB1386018921
:1001940063FAC5008322050023A0550011059105CB
:1001A400E3EAC5FE1385018997750000938505D0A0
:1001B4006377B500232005001105E36DB5FE9302B6
:1001C4005002739002BC8D427390428085427390BA
:1001D40012BC93028008739002309702000093824D
:1001E40062E293E2320073905230976200E09382AD
:0C01F40042807390123473002030000031
:100200009305000273A04580824573901534924097
:100210002242B2424243D2436244F24402559255D2
:100220002256B2564257D2576258F258064996495A
:10023000264AB64A464BD64B664CF64C065D965D52
:10024000265EB65E465FD65F0961730020302303E9
:10025000048015472303E48001002302A4808280E8
:1002600083076480E3CE07FE230304808280830734
:100270006480E3CE07FE0345448082808307648068
:10028000E3CE07FE2302A4808280411126C44AC225
:100290004EC006C61377F50BAD47AA892E89954443
:1002A0006306F70019456537653F8D444E85453730
:1002B000FD59FD1463983401B240A24412498249A9
:1002C00041018280135509011375F50F453F22093D
:1002D000CDB7011126CC06CEB7040800513715451D
:1002E000BD37713769372AC6A53F32459377150068
:1002F00089EB136515001375F50FF240E2440561B3
:100300008280FD14E9FC0145CDBF397126DC4ADA53
:100310004ED852D656D45AD25ED006DE62CE66CCC5
:10032000B7E700E07D5783AA070022C603AA47006B
:1003300023A0E71823A2E718B7170040130770059A
:100340002380E704130780FA2380E70483C7470468
:10035000930B75FFB684E20793FBFB0F8546AA89D2
:100360002E8B328937240040E187015763FA7601EA
:100370006308D5008946130700026313D5000157AF
:10038000D98F93F7F70FB71C00402382FC04114765
:100390002303E4801305F00F5D3D094CD135636DF7
:1003A0007C11B7050700DA9537870700795563F2A6
:1003B000E504B3879500636EF702370B0800A94781
:1003C00033EB65016399F90689E48144513D268543
:1003D0000DA0DA850945553D05090345F9FFFD14D2
:1003E000050B693D81C49377FB0FFDF7DD3569FD92
:1003F0007D55B7170040130770052380E7041307E6
:1004000080FA2380E70403C74704418B2382E70473
:10041000F250B7E700E023A0571123A24711E2549E
:1004200032445259C259325AA25A125B825B724C00
:10043000E24C21618280A5476395F906856913091D
:10044000F00FB3069900B3742B01B6941349F9FF6A
:10045000B3749900856B33796901416B9387F9FF18
:10046000B3F7270199E363FC340193D94900C147ED
:10047000E3E637FF99BF0569C1697D19D9B713054F
:10048000800D6388690113050002638479011305F7
:100490001008CA85DD3B353D21DD4E99B3843441DA
:1004A000D9B7DA852D45D533CA94E30099F2050909
:1004B0007D3BA30FA9FED5BF9387F9FF93F7F70FF5
:1004C0006361FC0C83C71C0413073008631FF70427
:1004D00037070800636BEB04B3079B00B7061000F7
:1004E00063F5D704334BEB0089476393F9068980A2
:1004F000D549E38C04ECDA850945413B1109032712
:10050000C9FF91472320E48003076480E34E07FE80
:1005100023033481FD17EDFBFD14110B81C4937788
:10052000FB0FE9FF7D3371F5E1B5B717004003C755
:100530005704B70708001377070219E3B7870700C6
:100540007955E378FBEA33079B00E3FFE7F855B5FD
:100550008547E382F9F2DA852D45053B9389F4FF5F
:10056000E38504E6293393F7390091EB8326048071
:100570000327090093074900E39AE6E43E89CE8405
:10058000F1BFB5476396F9001305900BC93135BD2E
:10059000B1471305B00AE38BF9FE99476391F9045B
:1005A000B7050800B365BB002D45C53181448D4BAF
:1005B000A149753963967401832704802320F900CB
:1005C0008504E39834FF8327048013172B016355B8
:1005D00007002312F900D5BB2322F900FDB39D4784
:1005E0006399F90281451305B0044531BD442320C8
:1005F000090023220900FD599D3993F77400CA9719
:1006000003C70700FD14398D2380A700E39634FF4C
:100610006DBBA1476392F9046D398144630D0B00F2
:100620008D479304C0036308FB0093040005630433
:100630008B01930440041375C507E30895D8194549
:10064000393139390545213126850D3909453D3185
:100650004931E31C05D669BB91476399F90013053D
:100660006006F536F53E130590090DB7E38F09D402
:10067000F154A9BBBD66014717660000130606BC0E
:10068000938606A685458347060093F7F70F91C327
:1006900082800507E3F9E6FE976700002380B7BA7A
:1006A000DDB77D166206618693178601E18763D404
:1006B000070001458280931726003307F500AE97A7
:1006C00018439C4363E7E7007D16E37FF7FC7D5505
:1006D000828005458280FD15E205E185139785013D
:1006E000618793F7F50F63480700FD151397250001
:1006F0002A97584365D71385170062056185828064
:100700003308B5021C4283A80600B335B502C29770
:1007100033B50701AE98469585486367B500639485
:10072000A50063E3070181480C43C6950CC388C24A
:100730001CC2828081471397870161876343B7009A
:100740008280139727002A97232007008507E5B7A3
:100750008147014793968701E18663C5B60013354B
:100760001700828093962700AA9694428507558F9A
:10077000D5B793D755408A07AA979C4305453315AB
:10078000B5007D8D8280174300E0E70283A32A84B1
:10079000993705C5931725003E940327C4FF814769
:1007A00011EB7D1516053E9542054185174300E086
:1007B000670063A305838507E5B70145C5BF81478A
:1007C0001397870161876343C700828013972700CF
:1007D000B386E50094422A97850714C3D5B77D16E2
:1007E00062066186014793178601E18763D507009A
:1007F00013351700828093172600B306F500AE97D5
:1008000094429C437D16B58F5D8FF1BF8A05AA95F2
:1008100001476363B500828083A6C5FFF11593D7B6
:100820001600D98F9CC11397F601E5B72A830148BA
:10083000014701456343D7008280B387050183A840
:100840000700B30706019C43C697AA976384F80084
:1008500033B517010507B3080301620723A0F800A9
:1008600061871108C1BF2A8301478147014563C3DE
:10087000D70082803388E50083280800330EE60025
:10088000032E0E003388A8403308C8416384080152
:1008900033B508018507B308E300E20723A0080188
:1008A000E1871107E9B7174300E0E70283910111DF
:1008B000B286B2842E86AA850A8575372A84A685D3
:1008C0000A85793533348000060413351500018D0F
:1008D0000561174300E067000391174300E0E7025A
:1008E000C38B4111AA89AE8A328BB68402C202C47C
:1008F00002C60144131C8401135C8C4163499C02B1
:10090000939B1400FD1B0549138CF4FFF15C330429
:10091000890162046184634D740592478E04CE940C
:1009200023AEF4FE4101174300E06700838A1319E8
:100930002400B30B2B01014A93172A00D69783A5F5
:100940000B0088437800340050005D3B050A931784
:100950008A01E187F11BE351FCFE92474E990504A1
:100960002320F900A2473EC2B24702C63EC459B78F
:10097000131A8901135A8A41131D240093178A01FF
:10098000E18763CF970092470A044E941CC0A247A8
:1009900005091379F90F3EC2B24702C63EC485BFAE
:1009A000B3079A0313152A005695084178003400BE
:1009B0005000050AEA97DA978C439933C1B7411181
:1009C000B7170040985F3AC6945F3247E39CE6FE53
:1009D000324541018280B7170040984B411113679F
:1009E000070198CB982B1377E70F98AB1307800874
:1009F00073370780137787083AC601000100130791
:100A000070052380E704130780FA2380E7040100C0
:100A100001001307000C6315E5029A271367070C02
:100A20009AA7B7170040982B1367170098AB23803D
:100A30000704B247F3A7078001000100410182804B
:100A4000B82793760520ADCA118B29E303C7E704C5
:100A500003C6E7041377F70F136636002387C7042E
:100A6000B02713664600B0A792278E2733460608A4
:100A700093E5050C8EA7A5470100FD1793F7F70F27
:100A8000E5FFB717004092A72387E7049377051087
:100A9000DDC3371700403C2793E707013CA7937756
:100AA000F50199EFB727004003C757801367070187
:100AB000A382E7801D470DA013672700B8A7F9B7E9
:100AC00025476366F704B727004003C757801377AD
:100AD000F70EA382E7800547A383E7803345050827
:100AE000B71700401367050C9AA78AA7B5CE03C7AE
:100AF000570483C65704418B858A558F1DF3B82B45
:100B0000418B05D3B8271377D70FB8A719BF9377B1
:100B1000050199EBB727004003C757801377F70EFD
:100B2000A382E78009474DBFB727004003C757801E
:100B30001377F70EB5BF9377850181EFB727004094
:100B400003C757801377F70EA382E78013071005BA
:100B500061B7B727004003C757801377F70EA3820A
:100B6000E780130770058DBFB8271377B70F71BFE4
:100B700037E700E01C435443A183E206D58F1CC134
:100B8000FD572320F7182322F718828013178500BA
:100B9000B7E700E023A0E710618123A2A7108280BD
:100BA00041118146014681451145EFF00FF61307CB
:100BB0008008F337078093F787083EC401000100DF
:100BC000B7170040130670052380C704930680FA08
:100BD0002380D70401000100FD55CEB72380070410
:100BE000A245F3A505800100010073370780137744
:100BF00087083AC6010001002380C7042380D70478
:100C00000100010003C76704136717002383E7048B
:100C100023800704B247F3A707800100010001A069
:100C2000197106C212C416C61AC81ECA22CC26CE14
:100C30002AD02ED232D436D63AD83EDA42DC46DE3C
:100C4000CAC0CEC2D2C4D6C6DAC8DECAE2CCE6CEAC
:100C5000EAD0EED2F2D4F6D6FAD8FEDA93858189BC
:100C60008841E700050092402242B2424243D2430B
:100C70006244F244025592552256B2564257D25718
:100C80006258F25806499649264AB64A464BD64B10
:100C9000664CF64C065D965D265EB65E465FD65F98
:100CA0000961730020304111B7170040985F3AC6C0
:100CB000945F3247E39CE6FE324541018280B7E70C
:100CC00000E03707001023A0E7208280B71700401C
:100CD000130700032388E702854723A0F18A7300E6
:100CE0002030411106C6C52BFDBF23AC05FE1C41BB
:100CF00099E30CC182803E8783A787FFEDFF232CF9
:100D0000B7FE8280411126C2B7E400E04AC003A9C1
:100D10000400B707200006C622C43379F90023A0D7
:100D2000F4180F10000009E523A02411014535A097
:100D30009565938505D0C98D2A842105B3C505081D
:100D400033450508EF10102C65D1FD572320050011
:100D500042A17CA123A024112105B2402244924447
:100D60000249410182804111B7E700E04AC003A96E
:100D7000070026C23707200006C622C4AA8433799A
:100D8000E90023A0E7180F10000083A7C18A0144DF
:100D9000014685E301C8A2851385C18A977001E0E9
:100DA000E7804050A1652685978001E0E780E0A3B9
:100DB0000DA003C7E7FF6319970205CCA285138531
:100DC000C18A977001E0E780E04DA1652685EF209C
:100DD0000013B24022852244B7E700E023A0271188
:100DE000924402494101828011E03E8683A787FF39
:100DF0004DB73E84E5BF37E700E01C43B70620004F
:100E00002320D718F58F0F10000019C191C111E6EA
:100E100037E700E02320F71082802E960F70B6503F
:100E2000D5BF37E700E01C43B70620002320D718C2
:100E3000F58F0F10000019C1014785E137E700E089
:100E40002320F7108280B386E50003A80600B306CE
:100E5000E5007D1623A00601110775F6C5B737E733
:100E600000E01C43B70620002320D718F58F0F1091
:100E7000000001C53307C50011E637E700E0232075
:100E8000F71082800505A30FB5FEE31DE5FEF5B75B
:100E9000B7E600E09C42370620002A87F18F23A0A6
:100EA000C6180F1000000145B306A7008386060090
:100EB00091E637E700E02320F71082800505EDB7C3
:100EC0000111B7E700E026CA84434AC8370720006B
:100ED00006CE22CC2A892E86F98C23A0E7180F1083
:100EE00000009305F00432C633450608EF10901158
:100EF0002A8401C53246CA85FD3DF24022856244FE
:100F0000B7E700E023A097104249D24405618280F0
:100F100037E700E01C43B70620002320D718F58FE1
:100F20000F10000001C599C1014711EA37E700E041
:100F30002320F710054582800507E309E6FE330804
:100F4000E500B386E500034808009422E306D8FED6
:100F500037E700E02320F7100145828037E700E003
:100F60001C43B70620002320D718F58F0F10000070
:100F70001307F6FFBA952A966317C50037E700E016
:100F80002320F71082809821FD150505A30FE5FEAB
:100F9000E5B737E700E01C43B70620002320D71849
:100FA000F58F0F10000001C53307C50019E637E7BC
:100FB00000E02320F7100145828014210505E39805
:100FC000B6FEE31CE5FE37E700E02320F7100545F9
:100FD0008280797126D29384418C22D4804006D6B7
:100FE0004AD04ECE52CC56CA5AC85EC662C44DC410
:100FF00037C9C901814B138BC18B1309F937176AA4
:101000000000130A6A87976A0000938A6A849769C6
:1010100000009389698B3E2099EF5C44639A0B0032
:101020009CC0032CC4002285EF10300A628489A87A
:1010300023A6FB00FDB783270B0082971C443307D0
:10104000F5406376F50003A789001D8F2A97636832
:10105000E9062E200820EF10906A5C405844A9CB86
:101060000C44176600000326A686AE97BE8663E48E
:10107000B70063E4C700B386C74014C4A28B3A84A8
:1010800059F8175700000327A77D894763E6E70053
:101090009757000023A6077CB2502254925402595D
:1010A000F249624AD24A424BB24B224C456182809D
:1010B00063940B0098C0B5B723A6EB009DB7032738
:1010C0004A021DCB63EDA7023385A7401C2099EF90
:1010D00003479A0183A689006117B307A7003E85DD
:1010E00063E4E70063E4D7003385D74083A70A01B0
:1010F0006374F50023A8AA00A28B404451B703A74C
:101100008900BA97D1B7011126CA06CE97540000BC
:101110009384847B22CC4AC84EC652C49C288844FF
:10112000D9CFB7E700E003A907003707200023A0C5
:10113000E7183379E9000F10000003C7418B19CB82
:1011400023A02711F2406244D2444249B249224AC4
:101150000561828017670000130787A88357C70AB5
:10116000A1CB9C440324870A6304F404975900002C
:101170009389096E03A709012285630BF702138A7D
:10118000C18B83270A0082976368A40C83270A0017
:10119000098C829783A7090198443354F40AB30752
:1011A000A4003E8563E4870063E4E7003385E740FD
:1011B000B7E700E023A027119C44639BA7021754C4
:1011C00000001304E468184883A7C18B6319A708BB
:1011D00082979444374736FE130707C83697B307FC
:1011E000A7003E8563E4E70063E4D7003385D7407A
:1011F000176400001304C4C15C5C89CB83A6019E04
:101200009C463707CDFF7D17F98F9CC611E18844B6
:1012100085475CD09757000083A74768829715E100
:101220005C5C99CF5C5089CF97E002E0E780406832
:1012300097E002E0E78040EF9767000023AC07BE2D
:10124000493B5C5CE38007F003A7019E1C47B7069F
:101250003300D58F1CC7FDB59C443E9405BF8297D3
:1012600014489844B387A6003E8563E4D700E3E1C1
:10127000E7F83385E740ADBF23A8A18A01C58547BC
:10128000238AF18A8280AA8799E5175700000347CD
:10129000A76409C7D5B711476369B700175700009E
:1012A00013074761B3C5E5209CC1828083A7018BEA
:1012B00081CF411106C6829783C7418B99E323A84A
:1012C000018AB2404101828083C7418B81E723A814
:1012D000018A82808280411122C426C206C64AC089
:1012E000976400009384C4B283C73402175400008B
:1012F0001304445CB9C317540000130464551389E4
:10130000818C032709001C2014300146B3A5E72077
:101310008E21B5C911C21CA00820636DD506975750
:1013200000002387075283A7C18BD5E7B240224430
:10133000924402494101828082971C40F5FF9757F1
:10134000000083C7675985E3DC48858B89CFD84C7B
:101350009947631EF7009767000023A507ACEF10BD
:1013600000115C4482971C44D9D7829769B7D84C46
:101370009D47E31AF7FE9767000023A507AAEF1021
:10138000000F1C48C5B7850793F7F70F0546E3EF35
:10139000D7F651B73327E5200E2323100700239BF0
:1013A000018A83A7018CB347F5209C4382971C20B8
:1013B0008326090003D7618B3377E540B3A6D72096
:1013C0009222518F9AA299C385071CA018201C3025
:1013D000E36EF7F4A9B79757000083A7674F1CC8BF
:1013E000CD3E83C73402B9F383C7140299CBDC4CDA
:1013F00089EB97670000A38D07A297E002E0E780E2
:1014000000EF9757000083A767498DD31C4899DFE9
:10141000183083260900814763C7E702D84C9147FB
:10142000E3E6E7F09757000083C7077A918BE39FC5
:1014300007EE83C7418BE39B07EE2244B240924400
:1014400002494101C9B133A6D7201222E31006EEAA
:101450008507D9B7B7C700401387C7201443139631
:10146000264910C301000100938787261755000005
:101470000325C53F9C436A0514C393C7F7FF9983AF
:101480005D8D828023A8A18C8280175600001306F0
:10149000E6709756000093866672DC36383E4C4AFA
:1014A000BA97FD8B33D7F5001CB2DCB6058B0DE780
:1014B000943A13050002B3F7D702814633D8E548C2
:1014C000630908006394D70018B28280850693F6FA
:1014D000F60F0507E314A7FE8280011126CA83A731
:1014E000C18B06CE22CC4AC84EC652C482979754AE
:1014F00000009384A46C9844AA870145630DF70407
:1015000063E3E706998F175900001309296993F9D6
:10151000F70113D457008347A901636AF402175AED
:101520000000130A6A3A95370347A9018C44032641
:101530008A0093175700AE97198CBE8663E4B700F4
:1015400063E4C700B386C74094C4E37EE4FC13158C
:10155000540033653501F2406244D2444249B249F5
:10156000224A056182809756000083A6663633873B
:10157000E640BA9749BF411122C417640000130422
:1015800024891C4426C206C6858B9754000083A478
:10159000646B91EBEF20B0262244B2402685924442
:1015A00041016F10502F98289767000023A60786E7
:1015B0008947E301F7FE0146930550020145EF100C
:1015C00080188145177502E01305C5F36D39014692
:1015D00081450545EF00D07D5C44858BC5DFB24079
:1015E00022449244410182809757000083A74769B3
:1015F000639B0716011122CC2A84094506CE26CA10
:101600004AC84EC6EF20D0269389019D03A6090043
:10161000930780071389419C7CD2238A018A832700
:1016200009009384019EB7053300D8572285719B2A
:1016300013671700D8D798431377F7CF98C3984309
:101640001377F7CF1367072098C398401447CD8EC0
:1016500014C7B70603009386862534CA5457F59AF3
:1016600054D798433424137707F893F6F607558F29
:1016700098C3EF10703983A60900370500827D15E5
:10168000DC4293E71700DCC2032609000307840647
:101690005C569375F703E605E98FCD8F5CD693050D
:1016A000A0039C4063D5E508F84FB70500074D8FB0
:1016B000F8CFB7C7898E938767ED1CC6B75755001B
:1016C000938757555CC28347A40683444406DD8C48
:1016D000894717570000232BF7749757000023AF53
:1016E00007727C44BCDE9757000083C7E71E99C78A
:1016F000FC52FDFF9757000023A0077218289D4752
:101700008145172500001305A5EF6306F7001705AF
:101710000000130585E6853E10386244F2404249D8
:10172000B249A685D244014505616F0070689305F2
:10173000200263DAE500F84FB70500F9FD156D8F5B
:10174000B7050005ADB7B70500F96945FD15635745
:10175000E500F84F6D8FB705000391BFF84F6D8F0F
:1017600013178729B1B7828097570000938747479F
:10177000E853054754256390E60203C7470791479E
:10178000631AF700011106CE2AC6EF10D00C3245BD
:10179000F240056191BD828083278511E5CB41111F
:1017A00022C406C658258345E5049437D2272A84E7
:1017B0001377C70F1395466063F7C5066351050697
:1017C000882793F6F60794B70546936627006314B7
:1017D000C5009366170054A4D8430907D8C303254E
:1017E00004114CB82E86CC430905EFF0CFE08327D7
:1017F00084115438D8433697D8C3DA27158FDAA71F
:1018000089473CBC034764039757000083C7E70739
:101810006369F706B24022440145410182801367A3
:10182000170058A46DBF9376F60F635505028827FD
:101830008545136627006314B5001366170050A48E
:1018400054B8A384070085473CBC832784119C437C
:10185000D5FBC9B71367170058A454B8A384070071
:1018600003250411CC430905EFF0EFD88327841139
:101870005438D8433697D8C3DA27158FDAA78D475F
:10188000E1B75C2493E707015CA469B70545828052
:10189000411183A7C19A22C406C6858B2A84C5E755
:1018A0004165130525F5979002E0E780608F41CDF3
:1018B0003C253EA583270412ADE32320A412232256
:1018C000A41285472311F404232005007C285441E9
:1018D0005EA5583418A5054718B513851702175784
:1018E00000000327A75615811C437D151375F50FBE
:1018F0009CC25C43DCC21C479CC65C47DCC61C4BDC
:101900009CCA5C4BDCCA1C4F9CCE5C4FDCCE0DC12C
:101910009386060213070702C1BF8327441288C3B8
:10192000835724042322A4128507B3C7070859BF8D
:10193000175700001307C72A1E2785071EA7B240A6
:101940002244410182805C2423090400054593C799
:1019500047005CA4EDB7142D854763ECD70A1C3D06
:101960002A870145CDEB5C2713F507013C2B99CB6A
:10197000834667039757000083C737F163ECF6008F
:1019800001E5828049E582808357271E0357671E41
:10199000BA9721A08357271E75F90145ADCF9387CC
:1019A000C712175500000355E5F2B3B5A702374635
:1019B0000F00411113060624814622C426C206C622
:1019C0007D543385A702975003E0E780A0BC97546D
:1019D000000083C4F4EBAA949757000083A78729DB
:1019E00003A707099C433354E40AFDFB83A7C18B7B
:1019F000829781476364A400B307A440B2402244A5
:101A000033B5970013451500924441018280814708
:101A1000B5BF01458280828003A7019D3C5BFDFF2D
:101A200001000100828039C901116C0022CC06CE70
:101A30002A84EF20803715C9FD57630DF502B247A0
:101A40009755000083C5D5E463EBB70003459402C6
:101A50006244F240B385B74005616F10A04E17573E
:101A600000000327E7E6BA97D5B76244F240056164
:101A70006F103078F2406244056182808280797113
:101A800052CC175A0000130AAA1526D283244A09F9
:101A900006D622D44AD04ECEC5C8975700009387A9
:101AA0002737D44F15476384E604DC532A8989CF4E
:101AB00097E002E0E780C0DF97D002E0E780C066F1
:101AC0009757000023A80736FD596C002685EF20A4
:101AD000C02D1DE5172500001305E5F1EFF0CFF946
:101AE00083A7019D3707100098C70547B8DB0D4550
:101AF000B250225492540259F249624A456182809E
:101B0000637435013244AA898440E1F0FD5713051E
:101B1000F00FE38FF9FC914763F187029307B4FF5D
:101B20002320F9002324FA0A99E79757000083A796
:101B300027DA2320F900014565BF9757000083A7E6
:101B400027D9ED17A297E9BF09455DB7797126D26C
:101B500006D622D44AD04ECE52CC56CA5AC85EC6F9
:101B60008347550303447513AA843E941374F40FFA
:101B70009307400263F687001304B4FD1374F40F57
:101B800003A9841383A9C413A38B841222864A85D4
:101B9000CE85974003E0E780805D058915E503CB9E
:101BA000D412014A814A337B6403930B500252865C
:101BB0004A85CE85974003E0E780605B05890DC5C7
:101BC00063916A031374FA0F238B8412B250225468
:101BD00092540259F249624AD24A424BB24B456191
:101BE0008280850A939A4A60050AE3127AFDE9BF6A
:101BF0008327850903560504797193D60701BD8EA5
:101C0000B3C60608358E93575640898B13577648CE
:101C10005D8F93573640918B5D8F93571640A18B04
:101C20005D8F93171600C18B5D8F9317360093F766
:101C300007025D8F9317560093F707045D8F931784
:101C4000760093F7F70F22D45D8F2A849357D6003E
:101C50001355B6001189898B93558600C98F13558A
:101C6000F6002582C98F218AD18F13961500418AEB
:101C7000D18F1396350013760602D18F1396550037
:101C800013760604D18F139675001376F60FD18F55
:101C9000A207C5455D8F3307B70226D24AD04ECE84
:101CA000032984138329C4135AC806D652CC56CAB2
:101CB00036973347070813565740098A9357774892
:101CC000D18F13563740118AD18F13561740218A6E
:101CD000D18F13161700418AD18F13163700137650
:101CE0000602D18F1316570013760604D18F1316F0
:101CF00077001376F60FD18F1358B7001356D7001D
:101D000013784800098A1355870033660601135873
:101D1000F700258333660601218B518F13161500BA
:101D2000418A518F1316350013760602518F131610
:101D3000550013760604518F131675001376F60FAF
:101D4000518F2207D98FB387B7025EC6B697B3C744
:101D5000070813D55740098913D77748498F13D5FA
:101D600037401189498F13D517402189498F139521
:101D700017004189498F1395370013750502498F64
:101D80001395570013750504498F13957700137544
:101D9000F50F598D13D8B70013D7D7001378480023
:101DA000098B13D687003367070113D8F700A58383
:101DB00033670701A18BD98F13171600418BD98F79
:101DC0001317360013770702D98F131756001377AE
:101DD00007041E06D98F1376F60FD18FA20733673B
:101DE000F5003307B702130650024A85CE853697B1
:101DF000B98EB3C4060833F6C402137BF60F9740BE
:101E000003E0E780C036058905E9834AD412014A18
:101E1000930B5002B38A9A02814493DA0A01268610
:101E20004A85CE85974003E0E780603405890DC57B
:101E300063914A0313FBF40F230B6413B250225433
:101E400092540259F249624AD24A424BB24B45611E
:101E50008280050A137AFA0F8504E39274FDE9BFC4
:101E60008327C50803568508797193D60701BD8E6F
:101E7000B3C60608358E93575640898B135776485C
:101E80005D8F93573640918B5D8F93571640A18B92
:101E90005D8F93171600C18B5D8F9317360093F7F4
:101EA00007025D8F9317560093F707045D8F931712
:101EB000760093F7F70F22D45D8F2A849357D600CC
:101EC0001355B6001189898B93558600C98F135518
:101ED000F6002582C98F218AD18F13961500418A79
:101EE000D18F1396350013760602D18F13965500C5
:101EF00013760604D18F139675001376F60FD18FE3
:101F0000A207C5455D8F3307B70226D24AD04ECE11
:101F10000329040A8329440A5AC806D652CC56CA51
:101F200036973347070813565740098A935777481F
:101F3000D18F13563740118AD18F13561740218AFB
:101F4000D18F13161700418AD18F131637001376DD
:101F50000602D18F1316570013760604D18F13167D
:101F600077001376F60FD18F1358B7001356D700AA
:101F700013784800098A1355870033660601135801
:101F8000F700258333660601218B518F1316150048
:101F9000418A518F1316350013760602518F13169E
:101FA000550013760604518F131675001376F60F3D
:101FB000518F2207D98FB387B7025EC6B697B3C7D2
:101FC000070813D55740098913D77748498F13D588
:101FD00037401189498F13D517402189498F1395AF
:101FE00017004189498F1395370013750502498FF2
:101FF0001395570013750504498F139577001375D2
:10200000F50F598D13D8B70013D7D70013784800B0
:10201000098B13D687003367070113D8F700A58310
:1020200033670701A18BD98F13171600418BD98F06
:102030001317360013770702D98F1317560013773B
:1020400007041E06D98F1376F60FD18FA2073367C8
:10205000F5003307B702130650024A85CE8536973E
:10206000B98EB3C4060833F6C402137BF60F97404B
:1020700003E0E780C00F058905E9834A1408014A97
:10208000930B5002B38A9A02814493DA0A0126869E
:102090004A85CE85974003E0E780600D05890DC530
:1020A00063914A0313FBF40F230F6407B2502254C9
:1020B00092540259F249624AD24A424BB24B4561AC
:1020C0008280050A137AFA0F8504E39274FDE9BF52
:1020D000797122D426D22E84AA844146976503E0E2
:1020E0009385C5200A8506D6972000E0E78060101A
:1020F0004146976503E09385651F0808972000E037
:10210000E780200F3C3010088A85DC875C2026851C
:102110005C875C30DC8697D002E0E78040D90347DB
:10212000F1011C200145631EF7000347E1011C304B
:1021300001456318F7000345D1013C201D8D13357F
:102140001500B2502254925445618280011122CC74
:1021500026CA4AC84EC606CEAA84175400000324D5
:1021600064B413092500854905C09C303830858B3F
:102170006304F700405CCDBF1946930544004A85CF
:10218000EFE01FD9E31835FFF24022856244D244C4
:102190004249B24905618280411122C426C24AC027
:1021A00006C6175400000324E4AF93042500054934
:1021B00001E8B240228522449244024941018280D2
:1021C000A6851305A4022937E30525FF405CCDB79A
:1021D000011122CC26CA06CE2AC42EC617540000EE
:1021E0000324C4AB854419E001450DA09C8418303C
:1021F000858B6304F7000044FDB719469305A100E1
:1022000013052400EFE0DFD0E31795FEF2406244AF
:10221000D244056182800000EFF04F897300000016
:10222000000000009382418B0383020023800200A0
:10223000630F0300F32510342EC09705000093852B
:10224000E5FD73901534EF00C0577300203086DC35
:10225000EF002057E6508280000041114AC01389E8
:10226000419C0327090026C206C61C5F22C4938432
:10227000019C93D76748B5CF930700061CDF17541E
:1022800000001304E4B8184C930700086317F70024
:102290009C409C4393F707041CCC1C4093F7070415
:1022A00089CB83A7C18B829748D81C4093F7F7FB53
:1022B0001CC01C4093F7070289CF1C4003A7019D57
:1022C000B706080093F7F7FD1CC05C5414C78607D7
:1022D0007CD71C4893F7070489EF85475CC837070C
:1022E000020083A7019D98C71307000C18C8185453
:1022F000F8D383270900985F1357474811CF985F99
:102300001367070198DF83A7019D23A2070685476E
:10231000175700002326F7B09C40D843135717489F
:1023200019C7D843759BD8C3D843799BD8C3B2404B
:1023300022449244024941018280053773002030D3
:10234000975700009387C7AC3707040088DB698F75
:1023500001CF03A7019DFD5634D797460000938611
:10236000264FD84E0507D8CE1377850019CF98474A
:1023700083A6419C1367170098C71307000898CBE2
:10238000D856719B13671700D8D61377150001CF65
:10239000D84383A6419C13671700D8C3D856719BB6
:1023A00013671700D8D61377650019CF1377450048
:1023B00059C398431367170098C383A6419CD85606
:1023C000719B13671700D8D64167698F0DC3975665
:1023D000000083C62688C18A17570000130747806C
:1023E000A5C28346470793E60602230AD7063707A6
:1023F0000200698F01CF984B1377070819C305476F
:1024000098CB83A7019D3707020098C7B70708003C
:102410007D8D0DC1175700000347D783058B974764
:1024200000009387E77B1DCB03C75707136727007F
:10243000A38AE7068280D84713671700D8C7B5BFBD
:10244000834647070946BD8A6388C6008346470717
:102450000D46BD8AE39DC6F8914641BF03C75707A5
:10246000118B69DB03C7570713678700D1B783A6B2
:10247000019D175700001307A7991C43858B91E70F
:102480005C43858B99E3FC52EDFB9757000023AB2F
:10249000079882809386419C2A8788421C5D93D747
:1024A0005748D1E781C51C59BD839CA115C69C42E4
:1024B000945BC60693D7660163D6060093E707C010
:1024C000B3C707088316060093975760B9C6BE9630
:1024D0008947B3C6F60216A283A7019DBC4B0833F9
:1024E00093D757488DCF29C59756000083A6C6932A
:1024F00093F606049307950009459DCABA979C2355
:102500000547194593F6F7066394E602014593974C
:10251000476063DF0700394582801EA275BF2A9796
:1025200048331375F5077D153335A00082800545C6
:10253000828083A7819C99CB944BD04B9842518F3A
:1025400098C294439C479842D98F9CC21386019DA0
:102550000548184283A6419C975700009387478BF4
:10256000631D050388421365050888C283C62702D8
:10257000B3C5D5209385A50C54471395164948C774
:102580000F100000184237060200860510C7130618
:10259000000890CB6CD354C7828088421375F5F73E
:1025A00088C283C62702B3E5D5209385E50EE9B737
:1025B000411122C4AA8706C626C22E851384019D16
:1025C000B285DDE71C40F8537DFF3707020098C74E
:1025D0009757000023A20784974400009384C429DE
:1025E000DC5085C7B7E700E03707200023A0E728C5
:1025F000B7F700E0938707D0984B6D9B98CB984B2B
:102600001367870398CB73005010253783A7419C2D
:1026100098431317772998C3D857719BD8D79757E2
:10262000000023A107809747000023A5077E1C40D8
:10263000094798C3DC5099CB37F700E0832707D1CF
:1026400093E787002328F7D07300501014401747F2
:1026500000001307E77B1C47858B91E75C47858B60
:1026600099E3FC52EDFBB240224492444101828046
:102670000D47639EE7049747000023AF077897470D
:10268000000023AD0778974400009384E41EDC50DB
:1026900085C7B7E700E03707200023A0E728B7F792
:1026A00000E0938707D0984B6D9B98CB984B1367AE
:1026B000870398CB73005010AD3D83A7419C98438E
:1026C0001317772998C3D857719BD8D7A5B7054753
:1026D000E39EE7F6974600009386061ADC5285C70C
:1026E000B7E700E03707200023A0E728B7F700E0AE
:1026F000938707D0984B6D9B98CB984B13678703B4
:1027000098CB730050101C40D04713171649D8C7F8
:102710000F1000001C403707020098C7130700087D
:102720009745000023AEE56E03A7419C184313575D
:10273000774819C71307E018F8D3D0C7DC52E5BDB6
:102740001307E01AD5BF83A7819C89CFD44303A880
:10275000870098423367070198C2D447DC4B984200
:10276000D98F9CC2054783A7419C9505631BE50251
:1027700098431367070898C3984F137707C01367E8
:10278000A71398CF13078007B8BB9397350093879B
:10279000C70319C29317160017470000232EF768C6
:1027A000828098431377F7F798C3984F137707C041
:1027B0001367271398CF1307F007B8BB939745000B
:1027C000F9B783A7019D8847D847798D11C588C778
:1027D00083A7C19C91C382878280896703A7019DDB
:1027E000938707F47CD383A6019E83A7060993D71A
:1027F000A74991C783A7060993D7974999E37C53C3
:10280000EDF782804111B7E700E022C4804337072B
:10281000200006C6798C23A0E7180F10000011C114
:1028200099E5B7E700E023A08710014549A80D0509
:1028300033450508130740037199B34705086362E0
:10284000A70203A501A783A681A6639FA600174739
:1028500000000327670571D7C207DD8D0545029784
:10286000C9B703A5C1A6C5B77A2131EF5A21636C58
:10287000F704B306F740214817460000130646FD4B
:102880006375D80283280500035866009386870085
:102890001D8FAA966117DAA223A0160123930600C2
:1028A00014C15EA1130788FF7AA27A226EA12105C6
:1028B000B307F7407EA2B7E700E023A08710B2403D
:1028C000224441018280084149B7B7E700E08C43C8
:1028D0003707200023A0E718F98D0F10000001E54D
:1028E00023A0B710828003A301A783A881A69A879B
:1028F000814663F8170903A807006367F508636555
:10290000A80813878700636EE506F2232167050791
:102910006317E6001386B1981822050718A2174519
:1029200000001305E5F2D2237A21239307003297A2
:10293000334707087AA16383670203A3C1A6630F25
:10294000F30003D36600631B0300DE2223A006010D
:1029500021073E962106D2A27AA1B6879843630248
:10296000170383A6C1A6630ED700762399EAD62360
:1029700052231843A106B296D6A398C37E21A1077D
:102980007EA1B7E700E0A9BFBE86C2879DB7AA8730
:1029900003A701A703A681A6B305B5406314E6000B
:1029A0003E8529A8930687001843E3E9D7FEE3F79D
:1029B000E7FE2E85E3E4D5FEE3F2E5FE82804111D9
:1029C00026C206C622C44AC09744000083A4C42677
:1029D0006383041003A4C40AAA86054535C03C24B9
:1029E0001307700A6390E70858301C341749000039
:1029F000130989ED03268900B387E7020357C9004D
:102A0000B387E7021307003293870719B3D7E702AA
:102A100003A744093E97BA846364F7006364C70060
:102A2000B304C74083A7C18B84C28297B387A440F5
:102A300063F5A40003278900BA9789EB1305F00F0B
:102A4000B2402244924402494101828058309306A8
:102A5000204E3307D702E3F3E7FE930780FA3CA446
:102A60000145F9BF1307800AE39AE7FC83A7C18BEE
:102A700082972A893545EF10A05FAD4717470000C0
:102A80002326F73A58301C34174600001306C6E3D5
:102A9000B387E7025A261046B387E70213070032CE
:102AA00093870719B3D7E70203A744093E97BA866D
:102AB0006364F7006364C700B306C740E310D9F846
:102AC000172503E013056559EFE00FFB83A7019D70
:102AD0000947F8D7A5B70545A5B7397156D2974A22
:102AE0000000938AEA3283A70A033707080026DA30
:102AF00006DE22DC4AD84ED652D45AD05ECE62CC04
:102B000066CA6AC86EC6F98F9744000083A4C412CF
:102B10006384071C83A9C40A83C7990003A4C9005E
:102B200092073E942820B14705053305F5025E2043
:102B30003E9533450508EFE0EF9CAA8C6305051A26
:102B4000130DC5002324A50134203146370B0300A3
:102B5000B386C602231304000149138A019D938B97
:102B6000419C938D019E130B8B15054CEA9654C422
:102B700083C679009307D00783250A00B386F6023F
:102B8000C1679CC5370833008606B4D183A60B0005
:102B900090421376F6CF90C290421376F6CF13662A
:102BA000062090C203A50D0010453366060110C52E
:102BB00003A6090023A865059305500290C672205C
:102BC0005444B2962324DD0014300146CA96A30172
:102BD000DD0003C504089746000023AD0622A53694
:102BE00083260A00CC4613961549D0C60F10000064
:102BF00083260A003706020090C61306000823A8A1
:102C0000CA0003A60B00104213567648631F860BBA
:102C10001306E018F0D2CCC6174600002324062085
:102C2000174600002328061E23A08601EFF03F84EC
:102C3000EF10E03C83A64A00858AD9CAEA8526853A
:102C4000973003E0E78080470DE903465D0049C205
:102C500076204E20B29663DDB606B428AC48032534
:102C60008D00918E8906B695EFE0EF9823020D0056
:102C700003465D007620B29676A003260A00310D49
:102C80003452FDFE342005091379F90FE362D9EEC1
:102C90009C246685A381FC001C20A3820C00238356
:102CA000DC002382FC006254F250D2544259B259E3
:102CB000225A925A025BF24B624CD24C424DB24DB8
:102CC0002161172302E06700E3321306E01A99B787
:102CD000FD562302DD0055B783A7019DFC5781C730
:102CE0008547238AF18AF2506254D2544259B2592C
:102CF000225A925A025BF24B624CD24C424DB24D78
:102D000021618280411122C406C626C24AC02E8497
:102D10008DCD13F91500814741476302090413174C
:102D200045003E97B1463307D70283A4C18CB31741
:102D3000F02833C90708BA949C40C840829723A062
:102D4000040023A2040033448900B24022852244B7
:102D50009244024941018280B356F448E9F2850762
:102D6000E39CE7FECDB7011126CA06CE22CC4AC8A5
:102D70004EC6AE84A1C593F7150001444147B1CBBF
:102D800093174500A2973147B387E7029389C18C17
:102D900003A909003E998327090081C7032549003B
:102DA000829731473307E40283A70900BA979C470B
:102DB0008DC733148028B3470408BD8CF2406244A9
:102DC0004249B2492685D24405618280B3D68448FF
:102DD000C5FA0504E31CE4FECDB723200900232235
:102DE0000900C1BFAA8703A5418C11E182803A2165
:102DF0006315B7001821E30BF7FE4845FDB779715D
:102E0000B7E700E022D4804352CC06D626D24AD07F
:102E10004ECE56CA5AC85EC662C43A8A37072000E8
:102E2000798C23A0E7180F10000005E123A087107C
:102E30000945B250225492540259F249624AD24A88
:102E4000424BB24B224C4561828083A7C18BB6892D
:102E50002A89AE8A328B938BC18C829703A70B0091
:102E60008144B146C147338CD402330687011042F6
:102E700035EEC165938505F04145EFF0BF9819ED3A
:102E80009747000083A747A281C7814511458297D4
:102E9000B7E700E023A087102D4561BF1387418C61
:102EA0001C43A1E308C323000500B31790283EA1EB
:102EB00083A70B0023260500232465012322450157
:102EC000E29723A0270123A2570123A4470163848B
:102ED000090023809900B7E700E023A0871001458F
:102EE00089BF3E87DC47F5FF48C775BF8504E39C73
:102EF000F4F6B7E700E023A0871021451DBFB7E730
:102F000000E09843B706200023A0D718758F0F1054
:102F100000009746000083C6B6936371D50283A66E
:102F2000818C3325D5201621D58D0EA19746000022
:102F300023A8069223A0E7100145828023A0E71072
:102F40000D4582800111B7E700E022CC80433707AE
:102F5000200006CE26CA4AC8798C23A0E7180F1095
:102F60000000BD4763E7A70431473307E50283A7A5
:102F7000C18CBA979C4395CF3315A0282E89B345B1
:102F8000050801452EC6B93DAA8409C9B2450145C7
:102F9000975001E0E780004B23A42401B7E700E04D
:102FA00023A087100145F2406244D24442490561A2
:102FB0008280B7E700E023A087100945EDB7974767
:102FC000000083C777BDAA86850703A5C195014781
:102FD00012216307D60005071905E36BF7FE0145CB
:102FE00082802A8703A5419611E182801C45B22781
:102FF000636BC70003584500B306C8006355D7008C
:103000008146639406010841C5B703D3A70093889E
:1030100007016316E30091C192A13E858280850677
:10302000C687B3C60608F1BF9746000083C6C6B67A
:1030300083A7019901476394E60001458280AE238E
:103040001386C7036394A5003E8582800507137726
:10305000F70FB287CDB7411122C406C697470000CB
:10306000238A07BE03A4019A05C06C390145B31534
:10307000B028B3C50508976001E0E7804088930752
:1030800010273305F50202942244B24081450145E0
:1030900041016FE04F9F411106C6383D19C73425E5
:1030A000631ED702B24041017DB73C2DE5DF3825D4
:1030B000E30AF7FE3CA5814517E5FFFF1305056B05
:1030C000EFE06F9C9747000083C7078189C783A7FC
:1030D000019D5147F8D3B240410182803C2D89C700
:1030E000E39AF6FC38A5C1BFD5FEEDBF41114AC039
:1030F000174900001309C9D18327890022C426C2B9
:1031000006C6974400009384A4AD858BE0509DCB08
:103110009747000023A207D083C74407C18B85CF00
:10312000EF00F06D83C7440793F70702E5DF83C71D
:103130004407228593F7F70C238AF406974002E0B0
:10314000E780A05CEF00B06B22852244B24092443D
:103150000249410109B783C75407858B91CBEF0022
:10316000106A8D47230EF406BC5822858297D9BF7A
:1031700083C744071547BD8B6395E7048347B406AF
:10318000034534060146930550025D8DEFF0AFDB39
:10319000014681450545EFF0AFC18327C900858B06
:1031A000D5D322859747000023AA07C6974002E09F
:1031B000E780603D41F9B240224492440249410116
:1031C000828083C744071947BD8BE39DE7F6834799
:1031D000B406034534060146930550025D8DEFF0B9
:1031E0008FD6014681450545EFF08FBC8327C90086
:1031F000858BA9DB22859747000023A107C2974052
:1032000002E0E780C0117DB7411122C426C206C684
:103210007C2578452A84BD8B1CA91CA31D476445C9
:103220006395E7340547B8A08347F5058D4663935A
:10323000D7185E2DCDE37C491147B18B638DE7082C
:1032400031476398E700034715068347F507630492
:10325000F7088547BCB019469305640313854400FD
:10326000EFD07FB9BC20990793F7F70FBCA00347B5
:1032700004061377070401CFB83013670704B8B00A
:103280007844BA975838B8B3BC208507BCA0974794
:1032900000002381079CBC2013F7F703050718B82B
:1032A0000347E4051A07D98FBCA083475403858BD5
:1032B00091E70347440389476317F70078441C23C9
:1032C00093E707041CA37C44183898B3B240224407
:1032D000924441018280A147BCB08357C406974500
:1032E00000009385E58F1386019DDCA08357C406FB
:1032F000034714067444A1831207BD8BD98FDCB237
:10330000B4208547890693F6F60FB4A0174700004E
:1033100003474794631EF706183C9387E6008E0721
:10332000231AF4069387C708B387E702794510424A
:103330000948238A0507C1650CC6938707FBB3C7F5
:10334000070893877716B3C7A70233C70708B38761
:10335000A70286073CD2BC3093E70701BCB07C448F
:10336000B6978346240693E60604B4B3B4207C449F
:10337000B697D8A3B4207C4421837D8BB69783462F
:1033800034069606558FD8B3BC208D07BCA021B754
:103390001042F947385205833357F7023C526852BE
:1033A0008583FD8BAA977CD28D47238AF506334708
:1033B000070855B71946639BC7125E2DC1E39305F5
:1033C0006503B8B013854400EFD0FFA2BC2013857D
:1033D000A4009907BCA0BC3093E72700BCB083478A
:1033E0005403898B95CF0C58BC299DCB1946D10528
:1033F000EFD07FA078441C2393E707F81CA3BC20E0
:10340000990793F7F70FBCA0034704061377070447
:10341000E30F07E6B430784493E60604B4B095B5FC
:103420008347D40391C778441C2393E707F81CA370
:1034300019469305E403EFD01F9CD1B7A147BCB058
:103440008357C506DCA08357C506034615066C45A1
:10345000A1831206BD8BD18FDCB1B02017350000DF
:10346000130505789385019D09061376F60FB0A024
:103470009737000083C7077E6398E704183C9307DB
:10348000E6008E07231AF4069387C708B387E7027E
:1034900079488946230AD5069441C1658CC693872D
:1034A00007FBB3C7070893877716B3C7070333C76C
:1034B0000708B38707038607BCD2BC3093E7070130
:1034C000BCB07C44B29771BD8C41B851F9470583BB
:1034D0003357F702BC5103A845068583FD8BC2977D
:1034E000FCD1230AD50633470708C1BFA147BCB0AA
:1034F0008357C506DCA08357C506034615066C45F1
:10350000A1831206BD8BD18FDCB1B020173500002E
:103510001305056D09061376F60FB0A09737000066
:1035200083C7477383A5019DE391E7FA183C93078E
:10353000E6008E07231AF4069387C708B387E702CD
:10354000F9460948230A0507416588C5938707FBA3
:10355000B3C7070893877716B3C7D70233C70708DF
:10356000B387D7028607BCD189BF0547639EE706AC
:10357000B1471CB983475503898BA1CB0C59BC2992
:10358000A9C71946D10513858400EFD0DF8678449A
:103590001C2393E707F81CA36844194693056403AA
:1035A0000905EFD05F8511679737000083A7477043
:1035B000F98FE38C07CE7C24B98BE39807CE78444F
:1035C0001C2393E707021CA3CDB18347D40389C70B
:1035D0009C2093E707F89CA0684419469305E403F0
:1035E0002105EFD05F814DBF522D0C55930766002A
:1035F00093F7F7031CB913858400E5B7011126CAB8
:10360000974400009384C4809C4422CC06CE173497
:1036100000001304E45C858B6850C9C32AC6973741
:10362000000023AB077EEF00901D03474407894746
:1036300032456307F700034744078D47631CF702D1
:1036400083A6019DBC520357450785831307C71204
:1036500063F2E702BC528583B1C391470347440735
:10366000E31EF7FE6244F240D2440561174302E0D4
:103670006700C331382D3C3D09CF34256309D7029B
:103680006388F60238A56244F240D24405616FD0E7
:10369000BFF599CF382509EF3CA5F5B72AC6EF004D
:1036A000101662443245F240D24405616DB2EDF726
:1036B000DC4CEDF70347440789476307F7000347EE
:1036C00044078D47E31CF7FC914703474407E31E7B
:1036D000F7FE49BF630E0530011122CC06CE26CA83
:1036E0004AC84EC652C456C2582585472A84631616
:1036F000F72C973700009387A771D44F1547638A3B
:10370000E600D44F0D476386E600D84FAD476312FD
:10371000F7026C386244F240D2444249B249224A2C
:10372000924A01450561B315B028B3C505086FF08D
:103730000FFD163113070064973400009384444A48
:103740003347D7029C20E8D0850793F7F70F9CA05A
:1037500063CAE700975001E0E780A05D973700005B
:103760002380074878249D47631FF7048347940606
:10377000B1C38356040763ECF6020C2493073004AC
:103780001CAC1305300493F6F60F014697F002E0E7
:10379000E780C08A22856244F240D2444249B2495D
:1037A000224A924A0561175302E06700A3CC8506BE
:1037B0002318D406930530020545975001E0E780B1
:1037C00020502301A4060549238A2407183C8D476D
:1037D000631CF70E975001E0E78000BE0D89630F70
:1037E000051463162517930760023CA49307500243
:1037F0003CAC9307700278243CBC85476302F70811
:1038000089659385F57013051027173A0000130A90
:10381000AA0B83497401975001E0E780E04C0E3019
:10382000835ACA002A8913060064B385550381466A
:1038300013850532B335B500973003E0E78080D5B6
:10384000AA84B335590337460F0013060624814670
:1038500033055903973003E0E780C0D383270A007C
:10386000AA948297B307950003278A00BE8563E474
:10387000A70063E4E700B385E7404E85EFF08FECE7
:1038800083475403898BE9CB8347C403F1C70C58A2
:10389000E1C5BC25F1C38947230AF4021946B105E5
:1038A00013056403EFD02FD50347C407894763E9A5
:1038B000E70A22856244F240D2444249B249224A90
:1038C000924A05616FD05FD289467C346315D70276
:1038D00013F7170019CB898B1307500291EB93074D
:1038E000700238A43CAC814739B713076002C5BFEA
:1038F00093076002FDB799CF93F6170013075002A4
:1039000091E6898B13B717001307670238A4230DBC
:103910000400D1BF3C2C130740026368F7009307F3
:1039200050023CAC3C2C3CA47DBF850793F7F70FBD
:103930003CAC13077002E364F7FEEDB713077002A7
:10394000930750023CAC38A4930760026DB513078F
:10395000500293077002FDB78547230AF402A9B706
:103960000327C40A83A6C18B3C27ADC31C37583339
:1039700097340000938444F59044B387E702DA2437
:10398000B387E7021307003293870719B3D7E7021B
:10399000032744093E973A896364F7006364C700CC
:1039A0003309C7408296B307A9406374A9009844BD
:1039B000BA9703576407E3FEE7EEF2406244D2444D
:1039C0004249B249224A924A05618280832484098D
:1039D000829663E9A400835764073385A440E37AA1
:1039E000F5ECE1BF9737000083A787EEBE94E5B7FB
:1039F000828001114EC6973900009389691E22CC3E
:103A000003A4C9094AC8173900001309E9EB035791
:103A1000C90026CA835464088327040906CEB384E8
:103A2000E40237470F009306F7231307072452C415
:103A300056C25AC0B694B3D4E40263EE9702138A16
:103A4000C18BB384974083270A00829763E9A4025D
:103A50003385A4406349050283570404A30F04007F
:103A600085072310F40483470414639E07102285FE
:103A7000EFE0CF8D21AA03278900BA97C9B7832722
:103A80008900BE94F1B783270A0082970327840830
:103A90006366E50A198D7E3C0357C9008E07B3871C
:103AA000E7021307003293870719B3D7E70263ECE5
:103AB000A708B74A0F00138BFA23938A0A24835767
:103AC000040485072310F4048347041481E7228546
:103AD000EFE0CF872285975002E0E780A07F631355
:103AE0000524032604090327C40883268900329786
:103AF000BA876364C7006364D700B307D740783CD4
:103B00000356C9002328F408050778BC0357640846
:103B10003307C7025A9733575703B384E74063F517
:103B2000E700998EB384F60083270A00829763E644
:103B3000A4043385A440E34405F839BF83278900F2
:103B4000998F3E9589BFA1452285975002E0E78075
:103B50008070A305A4029737000083A7E7D463838E
:103B6000071C6244F240D2444249B249224A924A76
:103B7000024B894515450561828783278900A697F1
:103B80003385A7404DBF2285EFE08F862285975071
:103B900002E0E7802074631705180355C9008357B6
:103BA0006408B7460F001386F623B387A7029386EF
:103BB000062403270409230B0402832A8900B297F1
:103BC000B3D7D702636AF716B307F7408326C40852
:103BD0002324F408014BB387E600BE8463E4D700D6
:103BE00063E45701B38457411E3023289408A1CBC6
:103BF000835604045A3037460F0056B03387E640E8
:103C0000B387E7023A301306062481468145BA9706
:103C1000B3C707083385A7023EB0973003E0E780BB
:103C2000609711CD2695B3349500A695AA876314A5
:103C3000BB0063645501B30755412328F40883276B
:103C40000A008297AA8483270A008297E30D95FED3
:103C500083270A0083248408829763E4A40E3385B3
:103C6000A440630B050E035AC90083576408B74488
:103C70000F001387F423B387470393840424BA9770
:103C8000B3D7970217370000034797C0BA9763E589
:103C9000A70CB3359502835A240252868146330518
:103CA0009502973003E0E780E08E3389AA003385E0
:103CB0004A0337460F001306062481468145973094
:103CC00003E0E780208D15C1B33795025286814607
:103CD000B385B4023385A402BE95973003E0E78034
:103CE000608BB38AAA40231154033545512623AE75
:103CF000890838348547631AF704930700FD7CA4CC
:103D0000814503A5819BEFD00FD895471737000059
:103D1000232EF7103707100083A7019D98C70609C7
:103D200023A82707F2406244D2444249B249224ABA
:103D3000924A024B05618280B3065701B387F64071
:103D400071B583278900BE9419BF930710FC7CA42A
:103D5000814503A5019B45BF9737000023A007F2CB
:103D6000834709018DC303A5419AEFD0AFF16244A7
:103D700083274900F240D2444249B249224A924A3A
:103D8000024B05618287834594026244F240D2442B
:103D90004249B249224A924A024B01450561B31594
:103DA000B028B3C505086FF08F95011122CC26CA43
:103DB0004EC606CE4AC852C456C25AC03835854788
:103DC000832405092A84AE896314F70C83570508F8
:103DD000835AC503173A0000130A0AAF035BCA00EF
:103DE00063FC571914296399E61803278511631595
:103DF00007180327450A6311071874351D47639D8B
:103E0000E6162A3DB38AFA409307204E3305550340
:103E10000329440937460F0013060624814633055B
:103E2000F5029737000083C7A7A633592503B3359A
:103E3000AB023E9933490908231324093305AB0229
:103E4000972003E0E7800075B307950033B5A7001E
:103E50002E9503278A00BE8419E163E4E700B3844A
:103E6000E740B307690337470F009306F7231307AB
:103E7000072423A09900B697B3D7E702D69763E447
:103E8000F4009D8C31A003278A00B307F740BE944D
:103E90001389C18B8327090023A09900829763E2CD
:103EA000A4103385A440635D050A83270900173BEE
:103EB0000000130B6BA1829703A709006369E50E4D
:103EC000198D7E3C0357CB008E07B387E70213079B
:103ED000003293870719B3D7E70263EFA70C374A7D
:103EE0000F00930AFA23130A0A2483570404850750
:103EF0002310F4048347041481E72285EFD01FC503
:103F00002285975002E0E780E03C61E583260409C2
:103F10008327C40803278B00B697BE8463E4D700C9
:103F200063E4E700B384E7407C3C8356CB0023285E
:103F3000940885077CBC83576408B387D702D6975B
:103F4000B3D7470363E6F40A9D8C8327090023A0B7
:103F50009900829763E1A40A3385A440E34705F8FA
:103F60009737000083C7D79263E6A706973700000C
:103F700023A687D00145B9A88357640837470F00A7
:103F80009306F723B387670313070724B697B3D7BE
:103F9000E702E3F8F4EE03278A002697B304F7401C
:103FA000C5BD9737000083A7A792BE94DDBD8327C8
:103FB0008B00998F3E9531B7A1452285975002E03D
:103FC000E7806029A305A4029737000083A7C78D67
:103FD00081EF7D55F2406244D2444249B249224ABF
:103FE000924A024B05618280894515458297D5B773
:103FF0001D8FBA9499BF83278B00BE94B1BF93865F
:10400000019D9C42B84B1377F78FB8CB9843136749
:10401000870098C39C4393D7374889C701000100A4
:104020000100010003A7419C1C4393F7F7CF93E7DE
:1040300007101CC303A6019E1C463707CEFF7D1741
:10404000F98F1CC69C4237070300B8CB83A7819C1D
:1040500099CBD44390479842518F98C2944BDC4BF4
:104060009842D98F9CC29737000023A107DC828039
:1040700083A7019D9C438D8BE9C74111B7E700E001
:104080004AC003A9070026C23707200006C622C47B
:10409000AA843379E90023A0E7180F100000173431
:1040A00000001304E4D6584C8D47631AF700973785
:1040B000000083A7A7AF0146814545458297194770
:1040C0006391E4048347140289CB83470402639617
:1040D000970097370000A38D07D4584CA14763156C
:1040E000F700930780101EB0238A018A093FB2406F
:1040F0002244B7E700E023A027119244024941017E
:1041000082809D47639BF40083471402F9D70347DD
:1041100004028D47E313F7FC6DBF544C6389E6003E
:10412000584C6306F700584CA147E31FF7FA834742
:104130001402DDFB5C4C2300F4028547A300F4026B
:0441400065B782805D
:1041480097110020938181C417C10120130101EB4D
:104158001305400097C5FF1F938545EA17C6FF1F43
:104168001306860963FAC5008322050023A05500BB
:1041780011059105E3EAC5FE17C5FF1F130505FDE7
:104188000285397101436EC619A0397141536AC855
:1041980066CA62CC5ECE19A0397101535AD056D284
:1041A80052D44ED64AD826DA22DC06DE33016140E4
:1041B800828241114AC026C222C406C68282B24DFA
:1041C8004101024D924C224CB24B4101024B924AA2
:1041D800224AB2494101024992442244B240410173
:1041E80082802A8309CA83830500230073007D1611
:1041F800050385056DFA82802A8311C62300B30062
:104208007D16050365FE828010219421050585052C
:104218006313D60075FA3305D6408280B71700407D
:1042280003C777051377E70FA38BE704130700F895
:10423800A38DE7043D47238CE70413075003A38CA1
:10424800E70403C7A7051377D70F238DE7048280F8
:10425800371700408347E70412054111BD8BC98F0A
:1042680093F7F70F93068008F3B6068093F686084F
:1042780036C601000100930670052300D704930693
:1042880080FA2300D704010001002307F704230064
:104298000704B247F3A707800100010041018280AB
:1042A800B717004003C7E7020D8941111377C70FFD
:1042B800498F93068008F3B6068093F6860836C6BB
:1042C80001000100930670052380D704930680FA45
:1042D8002380D704010001002387E7022380070415
:1042E800B247F3A707800100010041018280411114
:1042F8002A830148930E407E130F0019930F40063E
:10430800B348030863EF1E011303001933736502F2
:104318008542FD4363F6B2088D4F214F930E400648
:10432800A1A07D13336EE3039308E016630E0E001D
:10433800336EF3039308D01663080E0093783300A6
:1043480093B818009388D816C29833C808084DBF88
:1043580093F81500138EF5FF637CBF02F908C29825
:1043680033C80808B3450E08E394F5FF8545630B89
:104378000300B378D503814563860800937535003B
:1043880093B51500F105C29533C805088945E9BFFD
:10439800B3881341C29833C80808B3450E089DBFB7
:1043A8007D16329879463307C70213D61700BE0721
:1043B8003348080832976146B3F6C6021306807080
:1043C800B386C6023697A166F58F4207D98FB7160E
:1043D800004003C7F60213770708D883908303C702
:1043E800F60213770708E316E6FE9883B71600402F
:1043F8004DCF1307800873370780137787083AC4AF
:104408000100010037170040930670052300D70408
:10441800930680FA2300D70401000100232A07032A
:104428008346170393E60608A308D7022300070468
:1044380022477327078001000100116637170040E3
:104448007D16545B4C5FAD8EF18EE5FE93068008B9
:10445800F3B6068093F6860836C601000100930677
:1044680070052300D704930680FA2300D7040100BF
:1044780001005CDB8347170393E70704A308F702EF
:1044880023000704B247F3A7078001000100410198
:10449800828003C7F60213770708D883908303C77F
:1044A800F60213770708E316E6FE98837DD391B7E3
:1044B80055714EDF86C7A2C5A6C3CAC152DD56DBF9
:1044C8005AD95ED762D566D36AD16ECFAA8982C01F
:1044D800EF00D01D93078008F3B7078093F787088C
:1044E800BEC201000100B717004013077005238002
:1044F800E704130780FA2380E7040100010003C7DB
:10450800F7021377770FA387E70203C7F70213674A
:104518008700A387E702238007049647F3A707804D
:1045280001000100130B80C1334B6503916793872A
:1045380007E8130A30029546B347F502330A4B03DE
:104548003EC8FD873ED2BD67938707A6334AFA0265
:104558001357FA413ACA330740413AD47D873ACCD7
:104568001307A0FB3307EB02B347F70205671307EE
:1045780007FA3ECEFD873ED6938729003319F70008
:1045880063E436013319370161671307076A334556
:10459800E50213070010B317F0288D873EC495472E
:1045A8003309A9023349E902130740063309E9022E
:1045B8001307D0073349E9021357F9413AD833179B
:1045C80030290D873AC663EF374993075047B30739
:1045D800F7023D67130707A6116C814A814B130444
:1045E8008008371D0040930480FA7D1CB387670359
:1045F800B307F040B3C7E7023ED0FD873EDA733712
:10460800048013778708BAC40100010013077005F6
:104618002300ED04930D0D0423009D040100010007
:1046280003473D051377870FA309ED0403473D05AD
:1046380013671700A309ED0423000D042647732709
:10464800078001000100930C70057337048013770D
:104658008708BAC601000100930770052380FD0092
:1046680023809D000100010003473D0513670702F1
:10467800A309ED0403570D051317E7282318ED04C4
:1046880003570D051317F7282318ED0423800D0091
:104698003647732707800100010003473D0513775C
:1046A80007026305073C03473D05218B6DDF880042
:1046B80097C0FF1FE780404B733704801377870844
:1046C800BACA0100010023809D0123809D000100DA
:1046D800010003473D051377F70DA309ED040347D0
:1046E8003D0513670702A309ED0403570D051317CA
:1046F800E7282318ED0403570D051317F728231887
:10470800ED0423800D005647732707800100010040
:1047180003473D05137707026301073803473D0543
:10472800218B6DFF97C0FF1FE780E0282A873ADCBE
:1047380097C0FF1FE78020286257E30AE5FE03576A
:104748000D0506451317E7282318ED0497C0FF1F2A
:10475800E780404303473D05218B6DDF03570D0577
:1047680083462D05C24733778701B386860313D660
:10477800F641BA96B388F640925733B7E6003297B7
:104788001D8FD247B3B61601158F63C6E700631CA9
:10479800F700637A1A01E2476348F7326395E70046
:1047A800A25763E3F832894663F27633733704809D
:1047B80013778708BAD0010001001307700523009A
:1047C800ED0423009D040100010003473D0593F615
:1047D800F90F1377870FA309ED0403473D05558F9C
:1047E800A309ED0423000D04065773270780010071
:1047F80001001306700503473D051D8B631037370D
:104808007337048013778708BAD4010001001307AF
:1048180070052300ED0423009D04010001000347F7
:104828003D051377F70DA309ED0403473D0513670D
:104838000702A309ED0403570D051317E7282318EA
:10484800ED0403570D051317F7282318ED0423006B
:104858000D04265773270780010001009306700591
:1048680003473D05137707026304073203473D05F5
:10487800218B6DDF880097C0FF1FE780E02E73371C
:10488800048013778708BAD8010001001307700560
:104898002300ED0423009D040100010003473D05AA
:1048A8001377F70DA309ED0403473D0513670702C6
:1048B800A309ED0403570D051317E7282318ED0482
:1048C80003570D051317F7282318ED0423000D04CB
:1048D80046577327078001000100930670050347B8
:1048E8003D05137707026300072E03473D05218B1B
:1048F8006DFF97C0FF1FE780000CAA8C97C0FF1FB1
:10490800E780600BE30C95FF03570D050645131769
:10491800E7282318ED0497C0FF1FE780A026034768
:104928003D05218B6DDF7337048013778708BADC68
:1049380001000100130770052300ED0423009D0406
:104948000100010003473D051377F70DA309ED04A6
:1049580023000D04665773270780010001000357E1
:104968000D0583462D05C25733778701B386860325
:1049780013D6F641BA9633B7E60032973388264104
:10498800B3B606011D8F158F6346E000631807262E
:10499800630608261305800C3307E5020256D25633
:1049A800B335050333050503BA95EF1013009306D5
:1049B800150033B5A6002E951357F501BA9633B7EF
:1049C800E6002A971316F70185820587D18E63467C
:1049D800E000631F072C638D062C0356CD02158259
:1049E800B305D60033B6C50032976348E0006310BC
:1049F80007361307F00F637CB734094763715727ED
:104A080093078008F3B7078093F78708BEDE010095
:104A18000100B7170040130770052380E704130748
:104A280080FA2380E70401000100DA3789668116DD
:104A3800558F33470708DAB723800704F657F3A7DB
:104A4800078001000100BE402E449E440E49FA59D9
:104A58006A5ADA5A4A5BBA5B2A5C9A5C0A5DFA4D72
:104A68006961828022479307504795B6733704805F
:104A780013778708BAC80100010023809D012380AD
:104A88009D000100010003473D0513670702A309C4
:104A9800ED0423800D004647EDBE7337048013777D
:104AA8008708BACC0100010023809D0123809D0066
:104AB8000100010003473D0513670702A309ED0440
:104AC80023800D00664789B1E3920BCE7246B25639
:104AD8009315170013D3F80113951800B365B300A5
:104AE8003ADE46DCEF10636C7257850B93FBFB0FC5
:104AF8006346E00031EFE258638C08049306150022
:104B080033B5A600AA9513D7F501BA9633B7E600D0
:104B18002E9785827E07558FF336048093F6860894
:104B2800B6CE0100010023809D0123809D00010075
:104B380001008356CD023697334707082316ED0246
:104B480023800D0076477327078001000100F5BC1C
:104B58009306F5FF13351500898D75B773370480F3
:104B680013778708BAD2010001002300CD0423007F
:104B78009D040100010003473D05558FA309ED047D
:104B880023000D0416577327078001000100A5B103
:104B98007337048013778708BAD601000100230011
:104BA800DD0423009D040100010003473D05136750
:104BB8000702A309ED0423000D0436577327078065
:104BC8000100010071B97337048013778708BADAD6
:104BD800010001002300DD0423009D040100010001
:104BE80003473D0513670702A309ED0423000D04DD
:104BF80056577327078001000100D5B19305800C33
:104C08003387E50233850503B3B50503BA95154720
:104C180063733705A247130750473387E702330604
:104C280060413306E6023D67130707A63346E602EE
:104C38009356F641EF1063571306F5FF1335150029
:104C4800898D13D7F5013A963337E6002E979316D8
:104C5800F70105829DBBB247130750477DBF130775
:104C6800800873370780137787083AC1010001006D
:104C7800B7160040130770052380E604130780FA6F
:104C88002380E60401000100DA3605660116137771
:104C9800F70F518F33470708DAB6238006040A470F
:104CA8007327078001000100850A93FAFA0F81BA79
:104CB80033E6E60049CE0356CD02B335D0003307BC
:104CC800E0400D8F3305D04015826345E00041E395
:104CD800637FA6060947637E570393078008F3B7E7
:104CE800078093F787083EC301000100B71700400B
:104CF800130770052380E704130780FA2380E7046D
:104D080001000100DA377D8BDAB7238007049A4760
:104D18003DB373370480137787083AC50100010053
:104D2800130770052300ED0423009D040100010012
:104D38000357CD02856681161377F70F558F3347D2
:104D480007082316ED0223000D042A4791BF930795
:104D58008008F3B7078093F787083EC70100010072
:104D6800B7170040130770052380E704130780FA7C
:104D78002380E70401000100DA37960636973347A7
:104D88000708DAB723800704BA4755B9914763EC97
:104D9800B704973703009387A756B3C5F520984102
:104DA8003E97B71700409387470B028794433717FE
:104DB8000040B3F6A64094C39306070B9C42B3F792
:104DC800A74019A8944337170040B3F6A64094C3E8
:104DD8009306070B9C42C98F9CC29307070A984306
:104DE8003377A74098C38280944337170040C98E11
:104DF800D9B798433377A74098C3B717004093872C
:104E0800070A9843498FF9BF9843498FF5B79147E7
:104E180063ECB704973703009387C74FB3C5F520F2
:104E280098413E97B71700409387470D02879443F0
:104E380037170040B3F6A64094C39306070D9C426B
:104E4800B3F7A74019A8944337170040B3F6A64014
:104E580094C39306070D9C42C98F9CC29307070C05
:104E680098433377A74098C382809443371700400C
:104E7800C98ED9B798433377A74098C3B71700406E
:104E88009387070C9843498FF9BF9843498FF5B723
:104E980019C5371700401E2FCD8F1EAF8280B71758
:104EA80000409A2FB375B7408EAF8280B717004085
:104EB8009A279306000C1377070C630AD7049A27DE
:104EC800137707100DC79A279E277D8B09EB93F759
:104ED8000720B1C33755E80113050580828037C51F
:104EE8009812FD8B130505E03345F50282809A2759
:104EF8009E2713770720FD8B11C73755E801130547
:104F08000580DDB73725F40013050540F1BF21659D
:104F1800130505D082803725F400130505408280EB
:104F2800B7F700E0884782803285814737370040ED
:104F3800A14663C3A70082803037E30FD6FE3386CD
:104F4800F5001022850710A7EDB797F6FF1F938687
:104F5800E663AA878842172700201307A7F4AA97B1
:104F680063E9E7000A87130707FC6364F7009CC23C
:104F780082807D558280411122C406C62A843D372D
:104F88002947B307E502B2408D83B3D7870222448D
:104F98009507B3D7E70237370040B3C707085EA7BE
:104FA80041018280716541111305052006C6E1376C
:104FB800B7370040130770F8B8A30D47B8B3130705
:104FC800000498B30547F8A7B24041018280238ABC
:104FD800018823A80188B71700401387070C1443DA
:104FE8009387070D9396664914C39443939666294D
:104FF80094C31443BD9A14C398431367070198C315
:10500800828023A8A18813064006894503C5C18963
:105018006F30C153371700401307470C1C43B706BE
:105028004000F58F1443138741891023C18A13B5B3
:10503800170091EA13652500630DA60008A383A74E
:10504800018981CB82876306A60008A399E30545F9
:10505800FDB7828011456FF0AFC5411193962500C9
:10506800AA852D4506C697B0FF1FE7808029B24064
:10507800014541018280011122CC26CA9396250060
:105088002A84B284AA850146254506CE36C697B03D
:10509800FF1FE7800027B2462686A285294597B0DC
:1050A800FF1FE7800026F2406244D24401450561B3
:1050B8008280011122CC06CE3714004026CA4AC885
:1050C8004EC652C483447405034AB4058349840513
:1050D80003499405EFF08F948347A40593F4F40FE4
:1050E800137AFA0F93E71700230DF40493F9F90FD5
:1050F8001379F90FB717004003C7A705058B6DFF94
:1051080003D5C705A38D4705238C3705A38C270531
:10511800A38B9704F2406244D2444249B249224ADE
:1051280005618280411122C406C62E84939755607A
:1051380063DF070097C0FF1FE78060C219C1EF3027
:1051480041171315F468B24022444101828093F755
:10515800150013C51500E5FB93F7250081CF5D3DCC
:105168001306000A894503C5C189EF30213E13455E
:105178002400D1BF8967ED8F85C3EFA0825AD93D3E
:1051880037F60200130606E0896503C5C189EF30CA
:10519800E13B1315D46845BF11656D8D4DD51735A5
:1051A800030013056518EF10737613060064916504
:1051B80003C5C189EF3081391315E46869B71D71DA
:1051C800494697350300938565161745030013056F
:1051D800254586CEA2CC97C0FF1FE780E0D201E923
:1051E800173503001305C515EF10537201A037F7E3
:1051F80000E023240700F9571CCB0564B7E700E05B
:1052080023A08710BD4614C323A0871801000100FE
:1052180017D7FF1F1307870023ACE188130700F88F
:10522800A38AE7401306C0038145480897C0FF1FBB
:10523800E78060C297070020938787E43ECAA1678A
:10524800938707E03ECEB7070105938707103ED046
:10525800ED472312F10285472303F1029707000067
:105268009387E7DFBEC497070000938707E1BEC6B0
:10527800930754D12314F10297070000938787CA34
:105288003EDAB7F50700970700009387C7E23EDECE
:10529800814697070000938727DC7000E1051945D0
:1052A800BEC0E08497B0FF1FE780A00519466C00D8
:1052B8001305E102EFE0FFF2D24781C7BC8463F334
:1052C800870001A04808EF30E17EAA8501C917359B
:1052D800030013052508EF10D34101A0F6406644EA
:1052E800256182804111170500001305E5E306C614
:1052F80022C4EF3081791384C18908A01928C139E3
:1053080008202244B24013060032896541016F30FB
:10531800E123397106DE13078008F337078093F716
:1053280087083EC201000100B717004093057005C9
:105338002380B704130680FA2380C7040100010004
:1053480083C6F70293F6A60FA387D7022380070424
:105358009246F3A606800100010073370780137791
:1053680087083AC4010001002380B7042380C704DA
:105378000100010003C7F70213672700A387E702AC
:1053880023800704A247F3A7078001000100054511
:10539800EFE01FF1C1318147014781460546854548
:1053A8001305407EEFE0BFF4680013064002814514
:1053B80097C0FF1FE78020AAB707C0A83ECAB787D3
:1053C800E803938707D03ECC97C7FF1F9387278DA5
:1053D8003EC6680097C7FF1F9387E78D3EC8EF302A
:1053E800111AF2502161828013F5150019C113C5F5
:1053F80015008280411122C406C61C212A849DC33F
:10540800973503009385451017350300130585F676
:10541800EF10332E4C40173503001305A5F6EF1097
:10542800532D1DA058411DE7973503009385C50DE1
:1054380017350300130505F4EF10B32B17350300D8
:105448001305C5F5EF10F32A2244B240294541015E
:105458006F10D32DA1679386D7036311D7029735B1
:1054680003009385650A173503001305A5F0EF10AF
:10547800532817350300130565F3E9B7ED0797358A
:10548800030093856508173503001305A5EE631916
:10549800F700EF10132617350300130565F25DB703
:1054A800EF1033254C4017350300130565F385BF0E
:1054B800411122C497350300938545042A84173582
:1054C8000300130525EB06C6EF10B322A285173596
:1054D8000300130565F2EF10D3212244B240294599
:1054E80041016F10B324411197350300938545FEA0
:1054F80017350300130505E806C6EF10931F1305BB
:105508000002EF10B322B240294541016F10132267
:10551800411197350300938525FA173503001305C4
:1055280065E506C6EF10F31C13050002EF10132003
:10553800B240294541016F10731F411106C6EF8023
:10554800B07A09E9EF103013EF208055B2404101DD
:105558006FF00046B2404101828041119735030047
:10556800938505F8173503001305C5E006C6EF1047
:1055780053182945EF10931BB24041017DBF4111DB
:1055880022C4173503001305E5DE2E849735030082
:10559800938545F306C6EF10D315A285173503008A
:1055A800130545E6EF10F3142945EF103318EF8083
:1055B800B07309E52244B240410141B7B2402244E8
:1055C800410182800111354697350300938545E4F2
:1055D800173503001305051306CE22CC97C0FF1F0D
:1055E800E780809201E917350300130565D5EF10B0
:1055F800F33101A097F7FF1F93878728B7F50700B6
:1056080081463EC41386418A9317B028E10519459F
:105618003EC697B0FF1FE780C0CE19469385418AE2
:10562800138501A997B0FF1FE780607C34001386BB
:10563800418A973503009385250217350300130522
:105648002503EF1030362A840DC99735030093855A
:10565800E5E9173503001305E5D1EF109309A28595
:10566800173503001305C5DBEF10B3082945EF1004
:10567800F30BF240624405618280EF7030431735C6
:105688000300130525EEEF00D007EF40F03817F5BB
:1056980000001305A54DEFF0804E17150000130507
:1056A800A511EFE0905917F5000013050540EFF03C
:1056B800E03E17F500001305E52FEFF0C02EEFF0E0
:1056C800A04CEFE0205617350300130525E5EFE061
:1056D80020572A84EF00B05EEF90D071EF10A1221E
:1056E800EF208043EF10F008EF10F005EFC0604E98
:1056F800EF10800497350300938545DF17350300C5
:10570800130545C709C8EF10C37EA28517350300E6
:10571800130545D391BFEF10C37D1735030013055B
:10572800A5D4EF10037D2945EF105300EFC0C0301A
:10573800EF80905B29C597350300938525DB1735E6
:105748000300130525C3EF10C37A173503001305AB
:1057580025D3EF10037A2945EF10437D97350300D1
:105768009385C5D8173503001305C5C0EF106378B6
:1057780017350300130505D3EF10A377C5BD753B97
:10578800F1BF411117050000130545C606C622C41E
:10579800EF30A12F1384A18A08A02D35EFF03F83A5
:1057A80017050000130505D1EFF0BF850820224436
:1057B800B2408545410117D3FF1F6700C373397194
:1057C8001C0822DC3EC22E84B7072000A16526DA19
:1057D8003EC4AA841C0893854520480006DE3EC6C0
:1057E800EF00C06BB717004083A5470C480093959E
:1057F800C56893D5C548EF20A04797350300938522
:10580800A5DD173503001305E5B6EF10836E0E24EA
:105818007220173503001305E5D5A18193F5F50727
:10582800EF10236D2945EF1063701C340147814642
:1058380093F7F707D917B337F000B307F0403CA444
:105848005000A2852685EF00B00515C52A84973536
:105858000300938565D8173503001305A5B1EF102C
:105868004369A28517350300130545D2EF10636815
:105878002945EF10A36BF2506254D2542161828003
:10588800411122C426C22A84AE84173503001305A9
:1058980065AE97350300938525D306C6EF1063657B
:1058A80013050002EF1083682945EF10236822854D
:1058B8002244B240A6859244410111B7411126C243
:1058C800AE848D4522C406C62A84EFF04FD4B7179C
:1058D800004081C823A6870CB2402244924441016B
:1058E800828023AC870CCDBF411197350300938587
:1058F800E5D0173503001305E5A706C622C4328490
:10590800EF10235F13050002EF1043622945EF10E3
:10591800E3611840B717004083A7470C0C239397FF
:10592800C76893D7C7486387F5002244B240056526
:10593800410169B7B240224441018280411122C429
:1059480026C22E84AA8497350300938525CA173565
:105958000300130525A206C64AC03289EF10635911
:105968000E24830684007220A18193F5F50717356C
:105978000300130525C3EF10C3572945EF10035B38
:105988008327090005658C23153FA2852244B24070
:1059980002492685924441011DB5011135469735C6
:1059A80003009385E5A6173503001305A5D506CE94
:1059B80097B0FF1FE780405501E91735030013052D
:1059C80025C8EF10A37401A0EF10A227EFE0D23B87
:1059D8002AC6EF10C135EF10C114EF60F046F2404F
:1059E8003245056182804111114506C6EFE05F86A8
:1059F8001305503497B0FF1FE78060FDB7170040CC
:105A0800116723ACE70AC1450545EFF06FC8854526
:105A18002165EFF0AFB78D451165EFF02FB7EFF0C7
:105A28006FD8174503001305A5BFEF10236E173570
:105A38000300130525CDEF10636DEFF04FF8EFF07D
:105A48007F8AA13F3D3B97B0FF1FE78000290145B2
:105A580082804111B2862E86AA852D4506C697B04A
:105A6800FF1FE780008AB240014541018280AE866F
:105A78000146AA85254517B3FF1F670083881D7156
:105A880086CEA2CC9307000432C663E2C7022A84FA
:105A98000808EFE00FF5B2461008A285294597B02F
:105AA800FF1FE7800086F6406644256182803955ED
:105AB800DDBFEFE26FEE2A8408452E89B28909C955
:105AC80000C1970500009385A5736105EF009176E5
